:0300000002007487
:0C007400787FE4F6D8FD75810802001DBD
:0E00650000007F057E347DC3DDFEDEFCDFFA89
:01007300226A
:10000300759850E4F587758920758DFD758BFDD244
:0A0013008ED2ACD2AFD2A0D2A1224F
:080080008F993099FDC299220D
:05001D0012000380FE4B
:03002300020026B2
:0D002600C0E0C0D075D000C005C006C00706
:10003300309824859908E508B43109C2A0120065F7
:10004300D2A0800CE508B43207C2A1120065D2A188
:07005300C298AF0812008003
:0B005A00D007D006D005D0D0D0E03297
:00000001FF
